{
  "_format": "hh-sol-artifact-1",
  "contractName": "BatPairReserves",
  "sourceName": "contracts/BatPairReserves.sol",
  "abi": [
    {
      "inputs": [
        {
          "internalType": "contract IPancakeFactory",
          "name": "_factory",
          "type": "address"
        }
      ],
      "stateMutability": "nonpayable",
      "type": "constructor"
    },
    {
      "inputs": [],
      "name": "factory",
      "outputs": [
        {
          "internalType": "contract IPancakeFactory",
          "name": "",
          "type": "address"
        }
      ],
      "stateMutability": "view",
      "type": "function"
    },
    {
      "inputs": [
        {
          "internalType": "address[]",
          "name": "tokens",
          "type": "address[]"
        }
      ],
      "name": "getBatPairReserves",
      "outputs": [
        {
          "internalType": "uint256[]",
          "name": "",
          "type": "uint256[]"
        }
      ],
      "stateMutability": "view",
      "type": "function"
    }
  ],
  "bytecode": "0x608060405234801561001057600080fd5b506040516107ef3803806107ef83398101604081905261002f91610054565b600080546001600160a01b0319166001600160a01b0392909216919091179055610082565b600060208284031215610065578081fd5b81516001600160a01b038116811461007b578182fd5b9392505050565b61075e806100916000396000f3fe608060405234801561001057600080fd5b50600436106100365760003560e01c8063bac0dfb01461003b578063c45a015514610064575b600080fd5b61004e610049366004610568565b61008f565b60405161005b9190610626565b60405180910390f35b600054610077906001600160a01b031681565b6040516001600160a01b03909116815260200161005b565b606061009c6002836106d0565b156100f75760405162461bcd60e51b815260206004820152602160248201527f746f6b656e73206c656e677468206d757374206265206576656e206e756d62656044820152603960f91b606482015260840160405180910390fd5b60008267ffffffffffffffff81111561012057634e487b7160e01b600052604160045260246000fd5b604051908082528060200260200182016040528015610149578160200160208202803683370190505b50905060005b61015a600285610682565b81101561050557600080546001600160a01b031663e6a439058787610180866002610696565b81811061019d57634e487b7160e01b600052603260045260246000fd5b90506020020160208101906101b29190610529565b88886101bf876002610696565b6101ca90600161066a565b8181106101e757634e487b7160e01b600052603260045260246000fd5b90506020020160208101906101fc9190610529565b6040516001600160e01b031960e085901b1681526001600160a01b0392831660048201529116602482015260440160206040518083038186803b15801561024257600080fd5b505afa158015610256573d6000803e3d6000fd5b505050506040513d601f19601f8201168201806040525081019061027a919061054c565b90506001600160a01b03811661030a57600083610298846002610696565b815181106102b657634e487b7160e01b600052603260045260246000fd5b60209081029190910101526000836102cf846002610696565b6102da90600161066a565b815181106102f857634e487b7160e01b600052603260045260246000fd5b602002602001018181525050506104f3565b60008190506000816001600160a01b0316630dfe16816040518163ffffffff1660e01b815260040160206040518083038186803b15801561034a57600080fd5b505afa15801561035e573d6000803e3d6000fd5b505050506040513d601f19601f82011682018060405250810190610382919061054c565b9050600080836001600160a01b0316630902f1ac6040518163ffffffff1660e01b815260040160606040518083038186803b1580156103c057600080fd5b505afa1580156103d4573d6000803e3d6000fd5b505050506040513d601f19601f820116820180604052508101906103f891906105d8565b509092509050898961040b886002610696565b61041690600161066a565b81811061043357634e487b7160e01b600052603260045260246000fd5b90506020020160208101906104489190610529565b6001600160a01b0316836001600160a01b0316141561046357905b6001600160701b03821687610479886002610696565b8151811061049757634e487b7160e01b600052603260045260246000fd5b60209081029190910101526001600160701b038116876104b8886002610696565b6104c390600161066a565b815181106104e157634e487b7160e01b600052603260045260246000fd5b60200260200101818152505050505050505b806104fd816106b5565b91505061014f565b509392505050565b80516001600160701b038116811461052457600080fd5b919050565b60006020828403121561053a578081fd5b813561054581610710565b9392505050565b60006020828403121561055d578081fd5b815161054581610710565b6000806020838503121561057a578081fd5b823567ffffffffffffffff80821115610591578283fd5b818501915085601f8301126105a4578283fd5b8135818111156105b2578384fd5b8660208260051b85010111156105c6578384fd5b60209290920196919550909350505050565b6000806000606084860312156105ec578081fd5b6105f58461050d565b92506106036020850161050d565b9150604084015163ffffffff8116811461061b578182fd5b809150509250925092565b6020808252825182820181905260009190848201906040850190845b8181101561065e57835183529284019291840191600101610642565b50909695505050505050565b6000821982111561067d5761067d6106e4565b500190565b600082610691576106916106fa565b500490565b60008160001904831182151516156106b0576106b06106e4565b500290565b60006000198214156106c9576106c96106e4565b5060010190565b6000826106df576106df6106fa565b500690565b634e487b7160e01b600052601160045260246000fd5b634e487b7160e01b600052601260045260246000fd5b6001600160a01b038116811461072557600080fd5b5056fea2646970667358221220f9fec1dfc5088e10c2dc037e34acd87097b0d94841d6822d0ee264f04f55f92764736f6c63430008040033",
  "linkReferences": {},
  "deployedLinkReferences": {}
}