{
  "_format": "hh-sol-artifact-1",
  "contractName": "DexHedge",
  "sourceName": "contracts/DexHedge.sol",
  "abi": [
    {
      "inputs": [],
      "stateMutability": "nonpayable",
      "type": "constructor"
    },
    {
      "anonymous": false,
      "inputs": [
        {
          "indexed": false,
          "internalType": "address",
          "name": "_swapRouter",
          "type": "address"
        },
        {
          "indexed": false,
          "internalType": "uint256",
          "name": "_id",
          "type": "uint256"
        }
      ],
      "name": "OnAddDex",
      "type": "event"
    },
    {
      "anonymous": false,
      "inputs": [
        {
          "indexed": false,
          "internalType": "address",
          "name": "_swapRouter",
          "type": "address"
        },
        {
          "indexed": false,
          "internalType": "uint256",
          "name": "_id",
          "type": "uint256"
        }
      ],
      "name": "OnRemoveDex",
      "type": "event"
    },
    {
      "anonymous": false,
      "inputs": [
        {
          "indexed": false,
          "internalType": "address",
          "name": "_token",
          "type": "address"
        },
        {
          "indexed": false,
          "internalType": "address",
          "name": "_trader",
          "type": "address"
        },
        {
          "indexed": false,
          "internalType": "bool",
          "name": "_open",
          "type": "bool"
        }
      ],
      "name": "OnSetTrader",
      "type": "event"
    },
    {
      "anonymous": false,
      "inputs": [
        {
          "indexed": true,
          "internalType": "address",
          "name": "_from",
          "type": "address"
        },
        {
          "indexed": true,
          "internalType": "address",
          "name": "_to",
          "type": "address"
        },
        {
          "indexed": false,
          "internalType": "uint256",
          "name": "_amountIn",
          "type": "uint256"
        },
        {
          "indexed": false,
          "internalType": "uint256",
          "name": "_amountOut",
          "type": "uint256"
        }
      ],
      "name": "OnSwap",
      "type": "event"
    },
    {
      "anonymous": false,
      "inputs": [
        {
          "indexed": true,
          "internalType": "address",
          "name": "_token",
          "type": "address"
        },
        {
          "indexed": true,
          "internalType": "address",
          "name": "_to",
          "type": "address"
        },
        {
          "indexed": false,
          "internalType": "uint256",
          "name": "_amount",
          "type": "uint256"
        }
      ],
      "name": "OnWithdraw",
      "type": "event"
    },
    {
      "anonymous": false,
      "inputs": [
        {
          "indexed": true,
          "internalType": "address",
          "name": "previousOwner",
          "type": "address"
        },
        {
          "indexed": true,
          "internalType": "address",
          "name": "newOwner",
          "type": "address"
        }
      ],
      "name": "OwnershipTransferred",
      "type": "event"
    },
    {
      "inputs": [
        {
          "internalType": "contract IUniswapV2Router01",
          "name": "_swapRouter",
          "type": "address"
        }
      ],
      "name": "addDex",
      "outputs": [],
      "stateMutability": "nonpayable",
      "type": "function"
    },
    {
      "inputs": [],
      "name": "dexPoolLen",
      "outputs": [
        {
          "internalType": "uint256",
          "name": "",
          "type": "uint256"
        }
      ],
      "stateMutability": "view",
      "type": "function"
    },
    {
      "inputs": [],
      "name": "owner",
      "outputs": [
        {
          "internalType": "address",
          "name": "",
          "type": "address"
        }
      ],
      "stateMutability": "view",
      "type": "function"
    },
    {
      "inputs": [
        {
          "internalType": "uint256",
          "name": "_dexId",
          "type": "uint256"
        }
      ],
      "name": "removeDex",
      "outputs": [],
      "stateMutability": "nonpayable",
      "type": "function"
    },
    {
      "inputs": [],
      "name": "renounceOwnership",
      "outputs": [],
      "stateMutability": "nonpayable",
      "type": "function"
    },
    {
      "inputs": [
        {
          "internalType": "contract IERC20",
          "name": "_token",
          "type": "address"
        },
        {
          "internalType": "address",
          "name": "_trader",
          "type": "address"
        },
        {
          "internalType": "bool",
          "name": "_open",
          "type": "bool"
        }
      ],
      "name": "setTrader",
      "outputs": [],
      "stateMutability": "nonpayable",
      "type": "function"
    },
    {
      "inputs": [
        {
          "internalType": "uint256",
          "name": "_dexId",
          "type": "uint256"
        },
        {
          "internalType": "uint256",
          "name": "_amountIn",
          "type": "uint256"
        },
        {
          "internalType": "uint256",
          "name": "_amountOutMin",
          "type": "uint256"
        },
        {
          "internalType": "address[]",
          "name": "_path",
          "type": "address[]"
        },
        {
          "internalType": "uint256",
          "name": "_deadline",
          "type": "uint256"
        }
      ],
      "name": "swap",
      "outputs": [],
      "stateMutability": "nonpayable",
      "type": "function"
    },
    {
      "inputs": [
        {
          "internalType": "contract IUniswapV2Router01",
          "name": "",
          "type": "address"
        }
      ],
      "name": "swapRouterIdMap",
      "outputs": [
        {
          "internalType": "uint256",
          "name": "",
          "type": "uint256"
        }
      ],
      "stateMutability": "view",
      "type": "function"
    },
    {
      "inputs": [
        {
          "internalType": "uint256",
          "name": "",
          "type": "uint256"
        }
      ],
      "name": "swapRouterVec",
      "outputs": [
        {
          "internalType": "contract IUniswapV2Router01",
          "name": "",
          "type": "address"
        }
      ],
      "stateMutability": "view",
      "type": "function"
    },
    {
      "inputs": [
        {
          "internalType": "contract IERC20",
          "name": "",
          "type": "address"
        },
        {
          "internalType": "address",
          "name": "",
          "type": "address"
        }
      ],
      "name": "traders",
      "outputs": [
        {
          "internalType": "bool",
          "name": "",
          "type": "bool"
        }
      ],
      "stateMutability": "view",
      "type": "function"
    },
    {
      "inputs": [
        {
          "internalType": "address",
          "name": "newOwner",
          "type": "address"
        }
      ],
      "name": "transferOwnership",
      "outputs": [],
      "stateMutability": "nonpayable",
      "type": "function"
    },
    {
      "inputs": [
        {
          "internalType": "contract IERC20",
          "name": "_token",
          "type": "address"
        },
        {
          "internalType": "address payable",
          "name": "_to",
          "type": "address"
        },
        {
          "internalType": "uint256",
          "name": "_amount",
          "type": "uint256"
        }
      ],
      "name": "withdraw",
      "outputs": [],
      "stateMutability": "nonpayable",
      "type": "function"
    },
    {
      "stateMutability": "payable",
      "type": "receive"
    }
  ],
  "bytecode": "0x608060405234801561001057600080fd5b5061001a3361001f565b61006f565b600080546001600160a01b038381166001600160a01b0319831681178455604051919092169283917f8be0079c531659141344cd1fd0a4f28419497f9722a3daafe3b4186f6b6457e09190a35050565b61159e8061007e6000396000f3fe6080604052600436106100ab5760003560e01c80638da5cb5b116100645780638da5cb5b14610183578063bda60267146101b5578063c15ccd7a14610200578063d9caed1214610220578063e6cad10b14610240578063f2fde38b1461026057600080fd5b806310b0f0b6146100b75780633746af08146100f757806343c0028914610119578063536db266146101395780636105b13214610159578063715018a61461016e57600080fd5b366100b257005b600080fd5b3480156100c357600080fd5b506100e46100d2366004611165565b60026020526000908152604090205481565b6040519081526020015b60405180910390f35b34801561010357600080fd5b5061011761011236600461131f565b610280565b005b34801561012557600080fd5b5061011761013436600461134f565b610453565b34801561014557600080fd5b50610117610154366004611165565b610a0e565b34801561016557600080fd5b506003546100e4565b34801561017a57600080fd5b50610117610b1c565b34801561018f57600080fd5b506000546001600160a01b03165b6040516001600160a01b0390911681526020016100ee565b3480156101c157600080fd5b506101f06101d036600461125d565b600160209081526000928352604080842090915290825290205460ff1681565b60405190151581526020016100ee565b34801561020c57600080fd5b5061011761021b3660046112d5565b610b64565b34801561022c57600080fd5b5061011761023b366004611295565b610cc2565b34801561024c57600080fd5b5061019d61025b36600461131f565b610d9c565b34801561026c57600080fd5b5061011761027b366004611165565b610dc6565b6000546001600160a01b031633146102b35760405162461bcd60e51b81526004016102aa90611434565b60405180910390fd5b60035481106103175760405162461bcd60e51b815260206004820152602a60248201527f696e76616c6964207377617020726f757465722c206964206f766572207665636044820152690e8dee440d8cadccee8d60b31b60648201526084016102aa565b60006003828154811061033a57634e487b7160e01b600052603260045260246000fd5b6000918252602090912001546001600160a01b03169050806103905760405162461bcd60e51b815260206004820152600f60248201526e72656d6f76656420616c726561647960881b60448201526064016102aa565b6001600160a01b038116600090815260026020526040902054828114156103cb576001600160a01b0382166000908152600260205260408120555b6000600384815481106103ee57634e487b7160e01b600052603260045260246000fd5b60009182526020918290200180546001600160a01b0319166001600160a01b039384161790556040805192851683529082018590527f3b359c3e9173f4579fbbf688653acb2c5da5833e0a10b6b6c6d559cbf6ec090d910160405180910390a1505050565b8282600081811061047457634e487b7160e01b600052603260045260246000fd5b90506020020160208101906104899190611165565b6001600160a01b038116600090815260016020908152604080832033845290915290205460ff166105065760405162461bcd60e51b815260206004820152602160248201527f74726164657220646f6e2774206d61746368207468652066726f6d20746f6b656044820152603760f91b60648201526084016102aa565b60028310156105465760405162461bcd60e51b815260206004820152600c60248201526b0d2dcecc2d8d2c840e0c2e8d60a31b60448201526064016102aa565b60035487106105885760405162461bcd60e51b815260206004820152600e60248201526d1a5b9d985b1a590819195e081a5960921b60448201526064016102aa565b6000600388815481106105ab57634e487b7160e01b600052603260045260246000fd5b6000918252602090912001546001600160a01b03169050806106085760405162461bcd60e51b81526020600482015260166024820152756465782062652072656d6f76656420616c726561647960501b60448201526064016102aa565b60008585600081811061062b57634e487b7160e01b600052603260045260246000fd5b90506020020160208101906106409190611165565b9050600086866106516001826114dc565b81811061066e57634e487b7160e01b600052603260045260246000fd5b90506020020160208101906106839190611165565b6040516370a0823160e01b81523060048201529091506000906001600160a01b038416906370a082319060240160206040518083038186803b1580156106c857600080fd5b505afa1580156106dc573d6000803e3d6000fd5b505050506040513d601f19601f820116820180604052508101906107009190611337565b6040516370a0823160e01b81523060048201529091506000906001600160a01b038416906370a082319060240160206040518083038186803b15801561074557600080fd5b505afa158015610759573d6000803e3d6000fd5b505050506040513d601f19601f8201168201806040525081019061077d9190611337565b60405163095ea7b360e01b81526001600160a01b038781166004830152602482018e90529192509085169063095ea7b390604401602060405180830381600087803b1580156107cb57600080fd5b505af11580156107df573d6000803e3d6000fd5b505050506040513d601f19601f820116820180604052508101906108039190611241565b506040516338ed173960e01b81526001600160a01b038616906338ed17399061083a908e908e908e908e9030908f90600401611469565b600060405180830381600087803b15801561085457600080fd5b505af1158015610868573d6000803e3d6000fd5b505050506040513d6000823e601f3d908101601f191682016040526108909190810190611181565b506040516370a0823160e01b81523060048201526000906001600160a01b038616906370a082319060240160206040518083038186803b1580156108d357600080fd5b505afa1580156108e7573d6000803e3d6000fd5b505050506040513d601f19601f8201168201806040525081019061090b9190611337565b6040516370a0823160e01b81523060048201529091506000906001600160a01b038616906370a082319060240160206040518083038186803b15801561095057600080fd5b505afa158015610964573d6000803e3d6000fd5b505050506040513d601f19601f820116820180604052508101906109889190611337565b905060006109968584610e61565b905060006109a48386610e61565b9050866001600160a01b0316886001600160a01b03167f8e2013ae0d3b6bd151dcad7dd4fd17a3b0b042731a80fc0b2a92a76e827835e584846040516109f4929190918252602082015260400190565b60405180910390a350505050505050505050505050505050565b6000546001600160a01b03163314610a385760405162461bcd60e51b81526004016102aa90611434565b6001600160a01b038116610a845760405162461bcd60e51b815260206004820152601360248201527234b73b30b634b21039bbb0b8103937baba32b960691b60448201526064016102aa565b60038054600181019091557fc2575a0e9e593c00f959f8c92f12db2869c3395a3b0502d05e2516446f71f85b810180546001600160a01b0319166001600160a01b038416908117909155600081815260026020908152604091829020849055815192835282018390527f89fe4bada06bc38542159d530ab8eac69a54aa40395958712064ffa9a8e82776910160405180910390a15050565b60405162461bcd60e51b815260206004820152601860248201527f63616e27742072656e6f756e6365206f776e657273686970000000000000000060448201526064016102aa565b6000546001600160a01b03163314610b8e5760405162461bcd60e51b81526004016102aa90611434565b6001600160a01b038216610bd55760405162461bcd60e51b815260206004820152600e60248201526d34b73b30b634b2103a3930b232b960911b60448201526064016102aa565b826001600160a01b03166318160ddd6040518163ffffffff1660e01b815260040160206040518083038186803b158015610c0e57600080fd5b505afa158015610c22573d6000803e3d6000fd5b505050506040513d601f19601f82011682018060405250810190610c469190611337565b506001600160a01b03838116600081815260016020908152604080832094871680845285835292819020805460ff1916871515908117909155815194855291840192909252908201527f34f993417bb08619bb52f9887fb23a002e51956d19bb9a537d30fa37f624b2ee9060600160405180910390a150505050565b6000546001600160a01b03163314610cec5760405162461bcd60e51b81526004016102aa90611434565b6001600160a01b038316610d36576040516001600160a01b0383169082156108fc029083906000818181858888f19350505050158015610d30573d6000803e3d6000fd5b50610d4a565b610d4a6001600160a01b0384168383610e74565b816001600160a01b0316836001600160a01b03167ff74ab1383b9a47bd675ac313d93c9e6f90e7643d1926e9ec686242066e6c51e983604051610d8f91815260200190565b60405180910390a3505050565b60038181548110610dac57600080fd5b6000918252602090912001546001600160a01b0316905081565b6000546001600160a01b03163314610df05760405162461bcd60e51b81526004016102aa90611434565b6001600160a01b038116610e555760405162461bcd60e51b815260206004820152602660248201527f4f776e61626c653a206e6577206f776e657220697320746865207a65726f206160448201526564647265737360d01b60648201526084016102aa565b610e5e81610ecb565b50565b6000610e6d82846114dc565b9392505050565b604080516001600160a01b038416602482015260448082018490528251808303909101815260649091019091526020810180516001600160e01b031663a9059cbb60e01b179052610ec6908490610f1b565b505050565b600080546001600160a01b038381166001600160a01b0319831681178455604051919092169283917f8be0079c531659141344cd1fd0a4f28419497f9722a3daafe3b4186f6b6457e09190a35050565b6000610f70826040518060400160405280602081526020017f5361666545524332303a206c6f772d6c6576656c2063616c6c206661696c6564815250856001600160a01b0316610fed9092919063ffffffff16565b805190915015610ec65780806020019051810190610f8e9190611241565b610ec65760405162461bcd60e51b815260206004820152602a60248201527f5361666545524332303a204552433230206f7065726174696f6e20646964206e6044820152691bdd081cdd58d8d9595960b21b60648201526084016102aa565b6060610ffc8484600085611004565b949350505050565b6060824710156110655760405162461bcd60e51b815260206004820152602660248201527f416464726573733a20696e73756666696369656e742062616c616e636520666f6044820152651c8818d85b1b60d21b60648201526084016102aa565b843b6110b35760405162461bcd60e51b815260206004820152601d60248201527f416464726573733a2063616c6c20746f206e6f6e2d636f6e747261637400000060448201526064016102aa565b600080866001600160a01b031685876040516110cf91906113e5565b60006040518083038185875af1925050503d806000811461110c576040519150601f19603f3d011682016040523d82523d6000602084013e611111565b606091505b509150915061112182828661112c565b979650505050505050565b6060831561113b575081610e6d565b82511561114b5782518084602001fd5b8160405162461bcd60e51b81526004016102aa9190611401565b600060208284031215611176578081fd5b8135610e6d81611545565b60006020808385031215611193578182fd5b825167ffffffffffffffff808211156111aa578384fd5b818501915085601f8301126111bd578384fd5b8151818111156111cf576111cf61152f565b8060051b604051601f19603f830116810181811085821117156111f4576111f461152f565b604052828152858101935084860182860187018a1015611212578788fd5b8795505b83861015611234578051855260019590950194938601938601611216565b5098975050505050505050565b600060208284031215611252578081fd5b8151610e6d8161155a565b6000806040838503121561126f578081fd5b823561127a81611545565b9150602083013561128a81611545565b809150509250929050565b6000806000606084860312156112a9578081fd5b83356112b481611545565b925060208401356112c481611545565b929592945050506040919091013590565b6000806000606084860312156112e9578283fd5b83356112f481611545565b9250602084013561130481611545565b915060408401356113148161155a565b809150509250925092565b600060208284031215611330578081fd5b5035919050565b600060208284031215611348578081fd5b5051919050565b60008060008060008060a08789031215611367578182fd5b863595506020870135945060408701359350606087013567ffffffffffffffff80821115611393578384fd5b818901915089601f8301126113a6578384fd5b8135818111156113b4578485fd5b8a60208260051b85010111156113c8578485fd5b602083019550809450505050608087013590509295509295509295565b600082516113f78184602087016114ff565b9190910192915050565b60208152600082518060208401526114208160408501602087016114ff565b601f01601f19169190910160400192915050565b6020808252818101527f4f776e61626c653a2063616c6c6572206973206e6f7420746865206f776e6572604082015260600190565b868152602080820187905260a0604083018190528201859052600090869060c08401835b888110156114bb5783356114a081611545565b6001600160a01b03168252928201929082019060010161148d565b506001600160a01b0396909616606085015250505060800152949350505050565b6000828210156114fa57634e487b7160e01b81526011600452602481fd5b500390565b60005b8381101561151a578181015183820152602001611502565b83811115611529576000848401525b50505050565b634e487b7160e01b600052604160045260246000fd5b6001600160a01b0381168114610e5e57600080fd5b8015158114610e5e57600080fdfea2646970667358221220e7e341151fee7948732cf1b65679924c9820ad0426e8b758a9201344c68d64bc64736f6c63430008040033",
  "linkReferences": {},
  "deployedLinkReferences": {}
}